:100000000C9402050C942A050C942A050C942A05DC
:100010000C942A050C942A050C942A050C942A05A4
:100020000C942A050C942A050C94A30E0C94150F1D
:100030000C942A050C942A050C942A050C942A0584
:100040000C942A050C942A050C942A050C942A0574
:100050000C942A050C942A050C942A050C94F70795
:100060000C942A050C942A050C942A050C942A0554
:100070000C942A050C942A050C942A050C942A0544
:100080000C942A050C942A050C942A050C942A0534
:100090000C942A050C942A050C942A050C942A0524
:1000A0000C942A050C942A050C942A05D516D7160B
:1000B0001515CD16C916D916CF16D916CB16D316C7
:1000C000D916D916D116F0F89C8E8783878E9CF8A6
:1000D000F00000FEFF0303030303070EFCF800001B
:1000E000FEFF0303030303070EFCF80000FFFF00FD
:1000F000000000000000FFFF0000FEFF83838383F9
:1001000083C7EE7C380000F8FC0E07030303070EDC
:10011000FCF800003F7FE0C08080C0E07F3FFFFF31
:1001200001010101010101FFFF0000FFFF0C0C0CA8
:100130000C1C3E77E3C100007FFFC0C0C0C0C0E020
:10014000703F1F00001F3F70E0C0C0C0E0703F1F45
:1001500000007FFFC1C1C1C1C1E3773E1C00001F89
:100160003F70E0C0C0C0E0703F1F00000000000111
:10017000FFFF01000000D5F08D14A1C881CFD9F197
:10018000AF20001010FFFFFFBFDFBFDFEFFFFFFF5B
:100190007FBF7FFFFFFFFFFFF7EBF7FFFFFFFFFFD3
:1001A000FFFEFFFFFFFFFFDFEFDFFFFFFFF7FFFFB8
:1001B000FFFFFFBFFFFFDFFFFFFFFFFFFFFBFDFDB7
:1001C000BBFFFFFFFFFFFFF7EBF7FFFFFFF9F3F9BF
:1001D000BF5FBFEFF7BFDFFCF9E7F3F9FFEFF7FF12
:1001E000FFD7EBFFFF8B777FF5EA752A15A146AFA6
:1001F0004EA752A95FFEC59A3CBA3C9AC5FAC14EB9
:100200009F5E9F4EE18B777FF5EA752A15AB5FB94C
:1002100053BF53B95FFECD9AF49AC4FAD5EAC14EE2
:100220009F5E9F4EE13F5FAF53AD5DAEFEFE5EAEA3
:10023000FEFDFBF70FF0E1E2C5CA858B978AC5E3A7
:10024000E5EBE5F2F8FFFFFF3F1F072355FD532FB6
:100250001FFFFFFFFFDF85001028547E143E7E2F16
:100260001D2A010BBFCB82100A157E143E543E1E80
:100270002E172C91C7FFFFEBD5AAD0A0DEBEDEA0C3
:10028000D0ABD5EBFF1F8F47F79B93F1FDFD7B4B69
:10029000C777EF1FFFFEFCD9AA51A2058305A25420
:1002A000AAD9FCFEFF03F3537353D351F65671D30F
:1002B000537353F303FCFDFDFDFDFD817D7D81FD49
:1002C000FDFDFDFDFC02EAD60206EAD60206EAD6EC
:1002D0000206EAD60200EAD50000EAD50000EAD517
:1002E0000000EAD50000AA00FFFF060607F7060691
:1002F00007FF00AA0080AA007F7F7E7F7F7F7F7F2D
:100300007E7F00AA80FFFE06B371E9D9B971E9D9F1
:10031000B97306FEFFBFBF80BBB7AE9DBBB7AE9C37
:10032000B8B780BFBF0FC3192524424242424224BE
:100330002519830FFFF0CF80BF007E007E007E0076
:10034000BF80CFF0FFFFFFFF03E9B5FAB8FAB8B5F9
:10035000E903FFFFFFFFFFABD06F874FA76FE7AF4A
:1003600017B0EBFFFF8898CC446265606120602085
:10037000602050301801010000000080C040603053
:1003800010080C06030DF21FC0606560612060203C
:100390006020503018609FF000180C82C040603020
:1003A00010080C06038898CC4462656061206020C8
:1003B000609007FE0101010000000080C040E0B035
:1003C0009402F09F600D9E5E8E4E04266635652673
:1003D0004C2E4D0D0901000000000080C04060302F
:1003E00010080C06038898CC446265606120602088
:1003F0006020503018A5A1A4B0D0B0D2D4B2B4B00F
:10040000D4A4A6A6A3FF3F8FA7E3F379713D1D0DEA
:100410000E8C86460503FDFC0F070180C04060344A
:1004200013090C0402091D0E0626666D6ECC19799F
:10043000B3C7CF1FFF00000000000080C040613242
:100440000001FF7B84DBA47FC002054061A0602027
:100450006020503018FFFFFCFBF9F6ECD8D8D1B083
:10046000A0A0A4A6A38898CC4462656021201001B6
:10047000C0B03FDBE4A1A1A0A0A0B0D0D8ECF6FBB7
:10048000FBFCFFFFFF010204081020408000000079
:1004900000003E5B4F5B3E3E6B4F6B3E1C3E7C3E26
:1004A0001C183C7E3C181C577D571C1C5E7F5E1C34
:1004B00000183C1800FFE7C3E7FF0018241800FFEE
:1004C000E7DBE7FF30483A060E2629792926407FE8
:1004D000050507407F05253F5A3CE73C5A7F3E1CF7
:1004E0001C08081C1C3E7F14227F22145F5F005FE3
:1004F0005F06097F017F006689956A6060606060C1
:1005000094A2FFA29408047E040810207E20100804
:10051000082A1C08081C2A08081E101010100C1E9F
:100520000C1E0C30383E3830060E3E0E0600000021
:10053000000000005F00000007000700147F147F28
:1005400014242A7F2A122313086462364956205045
:100550000008070300001C2241000041221C002A61
:100560001C7F1C2A08083E0808008070300008081C
:10057000080808000060600020100804023E51498D
:10058000453E00427F400072494949462141494D5C
:10059000331814127F1027454545393C4A494931E3
:1005A00041211109073649494936464949291E0062
:1005B000001400000040340000000814224114140C
:1005C000141414004122140802015909063E415D29
:1005D000594E7C1211127C7F494949363E414141B6
:1005E000227F4141413E7F494949417F0909090133
:1005F0003E414151737F0808087F00417F41002040
:1006000040413F017F081422417F404040407F022B
:100610001C027F7F0408107F3E4141413E7F090953
:1006200009063E4151215E7F09192946264949495B
:100630003203017F01033F4040403F1F2040201F05
:100640003F4038403F631408146303047804036197
:1006500059494D43007F41414102040810200041A7
:1006600041417F0402010204404040404000030732
:10067000080020545478407F284444383844444487
:1006800028384444287F385454541800087E0902FE
:1006900018A4A49C787F0804047800447D400020BE
:1006A00040403D007F1028440000417F40007C0412
:1006B0007804787C080404783844444438FC1824CE
:1006C000241818242418FC7C0804040848545454A2
:1006D0002404043F44243C4040207C1C2040201C37
:1006E0003C4030403C44281028444C9090907C443E
:1006F00064544C440008364100000077000000417B
:1007000036080002010204023C2623263C1EA1A159
:1007100061123A4040207A38545455592155557940
:100720004121545478412155547840205455794002
:100730000C1E527212395555555939545454593961
:10074000555454580000457C410002457D4200014B
:10075000457C40F0292429F0F0282528F07C5455C8
:1007600045002054547C547C0A097F493249494948
:10077000323248484832324A4848303A4141217A78
:100780003A42402078009DA0A07D39444444393D40
:100790004040403D3C24FF2424487E4943662B2FA3
:1007A000FC2F2BFF0929F620C0887E090320545412
:1007B00079410000447D413048484A323840402267
:1007C0007A007A0A0A727D0D19317D2629292F288F
:1007D000262929292630484D4020380808080808CD
:1007E000080808382F10C8ACBA2F102834FA0000B7
:1007F0007B000008142A142222142A1408950022CF
:100800000095AA005500AAAA55AA55AA000000FF03
:1008100000101010FF00141414FF001010FF00FF50
:100820001010F010F0141414FC001414F700FF0062
:1008300000FF00FF1414F404FC141417101F101010
:100840001F101F1414141F00101010F000000000DF
:100850001F101010101F10101010F010000000FFDB
:10086000101010101010101010FF10000000FF14D6
:100870000000FF00FF00001F10170000FC04F4142C
:10088000141710171414F404F40000FF00F71414E4
:100890001414141414F700F7141414171410101F60
:1008A000101F141414F4141010F010F000001F1096
:1008B0001F0000001F14000000FC140000F010F0E6
:1008C0001010FF10FF141414FF141010101F00005C
:1008D0000000F010FFFFFFFFFFF0F0F0F0F0FFFF6F
:1008E000FF0000000000FFFF0F0F0F0F0F38444400
:1008F00038447C2A2A3E147E02020606027E027ECC
:100900000263554941633844443C04407E201E2024
:1009100006027E020299A5E7A5991C2A492A1C4CC9
:100920007201724C304A4D4D303048784830BC62CC
:100930005A463D3E494949007E0101017E2A2A2A44
:100940002A2A44445F444440514A444040444A5166
:10095000400000FF0103E080FF000008086B6B0807
:100960003612362436060F090F060000181800004C
:10097000001010003040FF0101001F01011E00198E
:100980001D1712003C3C3C3C0000000000080B001E
:100990000202020100090400000102020000052415
:1009A00000100105240101010424020605240600AB
:1009B000010705810310004009040100020A00003C
:1009C0000007050202400000070583024000000402
:1009D00003090412010002EF0201404123368000A6
:1009E000010102030141726475696E6F204C4C4332
:1009F0000041726475696E6F204C656F6E61726440
:100A00006F005F1711241FBECFEFDAE0DEBFCDBF4E
:100A100011E0A0E0B1E0ECE8F0E302C005900D9237
:100A2000AA37B107D9F728E0AAE7B1E001C01D92C3
:100A3000A930B207E1F715E0C2E0D5E004C0219784
:100A4000FE010E942A18C130D107C9F70E94801107
:100A50000C9444180C940000CF92DF92EF92FF9216
:100A60000F931F93CF93DF936C017A018B01C0E04A
:100A7000D0E0CE15DF0589F0D8016D918D01D6014A
:100A8000ED91FC910190F081E02DC6010995892B33
:100A900011F47E0102C02196ECCFC701DF91CF9106
:100AA0001F910F91FF90EF90DF90CF9008953FB787
:100AB000F8948091880390918903A0918A03B09162
:100AC0008B0326B5A89B05C02F3F19F00196A11DE9
:100AD000B11D3FBFBA2FA92F982F8827820F911DD4
:100AE000A11DB11DBC01CD0142E0660F771F881F1B
:100AF000991F4A95D1F708952F923F924F925F9296
:100B00006F927F928F929F92AF92BF92CF92DF921D
:100B1000EF92FF920F931F93CF93DF93CDB7DEB782
:100B200027970FB6F894DEBF0FBECDBF9B838A8395
:100B30006A30A1F4DC0155962C91559751968D9110
:100B40009C915297B8E02B9F800D911D1124EA8152
:100B5000FB81928B818B108A1786C1C06D3009F49E
:100B6000BEC0AA81BB8155964C91559754966C9006
:100B700054976E8253967C9053977F825196CD9076
:100B8000DC9052971F968D919C91509780389105DB
:100B9000C4F0AA81BB8155962C915597422F50E005
:100BA0001F968D919C915097B6E02B9F800D911DC3
:100BB0001124EA81FB81908B8787268921117AC0D5
:100BC0008EC0F0E4CF16D10424F79C0155E0459F78
:100BD000200D311D112412161306DCF6242E312CA3
:100BE0009601A8E04A9F200D311D1124121613060C
:100BF00084F6B5E06B9FB0011124FB01E357FB4F76
:100C00002F0150E0F201B490553009F4B12C760177
:100C1000B8E09B2EB0FC02C08E8001C08F80811096
:100C20000BC06E807F80671007C0B6949A94E20C68
:100C3000F31C9110EFCF33C09C012983622F681BF6
:100C4000641798F7B701E62FEE19E41728F5203856
:100C50003105F8F460347105E0F48B01E5E8F4E067
:100C6000A0E16A2E7980609ED001A0781124A70DA2
:100C70000770E00FF11DA490BD83AC83AB56BC4F51
:100C8000882019F0EC91AE2A03C0A094EC91AE221A
:100C9000AC926F5F7F4FD7CF2F5F3F4FCECF5F5F5D
:100CA000820D931D92012F5F3F4F2901563009F0AD
:100CB000A9CF6FCF6AEF64039001659F300D1124B7
:100CC00020583F4F2817390754F48A819B81DC0153
:100CD000ED91FC910190F081E02D6AE0099581E0B1
:100CE00090E027960FB6F894DEBF0FBECDBFDF9120
:100CF000CF911F910F91FF90EF90DF90CF90BF9019
:100D0000AF909F908F907F906F905F904F903F90AB
:100D10002F9008950895089580E090E00895AC0123
:100D2000A0918503B09186032091830330918403C1
:100D3000C901840F951FE7E06A2FE89F600D112419
:100D4000862F63E00E94F617F92F241B350B4A0FFC
:100D50005B1F249F802D11246E2F0E94F6178F2F6A
:100D60008927817008954F925F926F927F92AF9220
:100D7000BF92CF92DF92EF92FF920F931F93CF9388
:100D8000DF936C017B01481759071CF4FC01DA0161
:100D900002C0FA01DC012E153F051CF4C701B901A0
:100DA00002C0C901B701A0908503B0908603A01BC3
:100DB000B10BAA16BB060CF452C0E00FF11FEA15E6
:100DC000FB050CF44CC0C0918303D0918403601BDD
:100DD000710BC617D7070CF442C0800F911F8C17F8
:100DE0009D07ECF14C195D09F901EE19FF099A0113
:100DF000DF010E9430182B013C01672B682B692B07
:100E000081F1D501AC19BD09CE19DF099F010E94FE
:100E100030186B017C019A01DE010E943018A70195
:100E20009601261B370B480B590BCA01B90126E066
:100E3000660F771F881F991F2A95D1F7A30192018A
:100E40000E94A617B90137FF04C066277727621BE7
:100E5000730B000F111F81E0061717071CF480E0C9
:100E600001C081E0DF91CF911F910F91FF90EF9032
:100E7000DF90CF90BF90AF907F906F905F904F903A
:100E8000089520918503309186032817390741F48E
:100E900081E020918303309184032617370709F0FE
:100EA00080E00895CF92DF92EF92FF922091850328
:100EB00030918603DC01A21BB30B809183039091D8
:100EC0008403FB01E81BF90B9D010E9430186B01A4
:100ED0007C019F01DF010E943018C60ED71EE81E5C
:100EE000F91E9A01DA010E94301821E06C157D0587
:100EF0008E059F050CF420E0822FFF90EF90DF908D
:100F0000CF9008952091850330918603E09183036B
:100F1000F09184036E1B7F0B821B930B97FF03C022
:100F200091958195910977FF03C07195619571093C
:100F3000680F791F81E0461757070CF480E0089589
:100F4000E0918503F0918603E817F90794F0480FC4
:100F5000591FE417F5076CF4409183035091840303
:100F60004617570734F0260F371F81E04217530703
:100F70000CF080E008950E943F188F929F92AF92EC
:100F8000BF92CF92DF92EF92FF926B017C010E94A1
:100F900057054B015C01C114D104E104F104F1F0E7
:100FA0000E945705DC01CB0188199909AA09BB09E0
:100FB000883E9340A105B10570F321E0C21AD10823
:100FC000E108F10888EE880E83E0981EA11CB11C90
:100FD000C114D104E104F10419F7DDCFFF90EF90C3
:100FE000DF90CF90BF90AF909F908F9008951F9209
:100FF0000F920FB60F9211242F933F938F939F93CD
:10100000AF93BF9380917A0190917B01A0917C0175
:10101000B0917D013091870323E0230F2D3720F419
:101020000196A11DB11D05C026E8230F0296A11D42
:10103000B11D2093870380937A0190937B01A09345
:101040007C01B0937D018091880390918903A091E8
:101050008A03B0918B030196A11DB11D8093880373
:1010600090938903A0938A03B0938B03BF91AF91B0
:101070009F918F913F912F910F900FBE0F901F90D6
:1010800018952D9A0895BC0180E090E00C94BD075E
:101090008FB18095807F669B88601C9B84600895DB
:1010A0000C949017CF9390919F07982331F49091CF
:1010B0009E07982311F081E013C0C82F0E944808B2
:1010C0008C238C130CC080919C0790919D0765E048
:1010D00070E00E9402189C0181E0232B09F080E05F
:1010E000CF9108956F927F928F929F92AF92BF920D
:1010F000CF92DF92EF92FF920F931F93CF93DF93E4
:101100007C01EB01909386038093850370938403A5
:101110006093830308E111E0F801A480B580F50134
:10112000C080D12CF8018280938060807180F501AD
:10113000218130E0A601B401C3010E94A0078823E9
:1011400091F0C819D909CC9DF001CD9DF00DDC9D21
:10115000F00D1124E618F708AE0EBF1EF501EE0DD6
:10116000FF1D82819DC30A5F1F4FF1E008341F07F6
:1011700099F624E130E04EE150E06AEF70E083E15F
:1011800091E00E94A007811116C028E230E049E1F9
:1011900050E060E471E088E092E00E94A0078111D5
:1011A0000AC045E150E064E673E084EF91E00E94FC
:1011B0005207882341F082E490E00E948F0681115B
:1011C000DDC284E06DC300E010E02CEB32E04AEFBA
:1011D00050E066E673E08AE790E00E94B306811172
:1011E000CFC201E010E026E633E04AE750E064E8D1
:1011F00073E086E492E00E94B3068111C1C200E070
:1012000010E024E833E046E452E066EC72E080E26D
:1012100093E00E94B3068111B3C226EC32E040E2B3
:1012200053E06CE672E08AE892E00E94B306811116
:10123000A7C22CE632E04AE852E06CEB72E084EFA1
:1012400091E00E94B30681119BC201E010E02CEBFB
:1012500032E044EF51E06CEB72E08AEF90E00E94E4
:10126000B30681118DC220E931E040EE51E06CEB14
:1012700072E080EE91E00E94B306811181C200E02D
:1012800010E020E931E040EE51E06AEF70E085ECDB
:1012900090E00E94B306811173C22CE231E042E576
:1012A00053E060E971E080EE91E00E94B3068111A5
:1012B00067C201E010E026E930E042E553E06CE26D
:1012C00071E082E593E00E94B306811159C222E3E6
:1012D00030E040E253E066E970E082E593E00E948E
:1012E000B30681114DC222E330E040E951E062E3F0
:1012F00070E080E293E00E94B306811141C226E4CF
:1013000030E044EB50E062E370E080E991E00E945D
:10131000B306811135C22CE231E048EC50E066E4BE
:1013200070E084EB90E00E94B306811129C200E0D6
:1013300010E024EF31E04CE251E06CE271E088EC27
:1013400090E00E94B30681111BC201E010E02CEB7B
:1013500032E04CE251E064EF71E08CE291E00E94F7
:10136000B30681110DC200E010E026E930E04BEB3E
:1013700050E06FE570E08AE590E00E94B3068111CD
:10138000FFC104E010E024EF31E046EB53E068E5F4
:1013900072E084E893E00E94B306811110C08BE7ED
:1013A000E81683E0F8060CF0F4C140E951E060E88B
:1013B00072E08CEE94E00E94520781110BC207E0AC
:1013C00010E023EE31E041EC52E060E971E080EBA7
:1013D00094E00E94B3068111FDC105E010E020EE0B
:1013E00031E040ED52E068E572E080EB94E00E946D
:1013F000B3068111EFC12AE532E04AE951E068ED18
:1014000071E084EE92E00E94B3068111E3C10BE02B
:1014100010E02AE332E048EC50E065E572E08EEA45
:1014200091E00E94B3068111D5C109E010E028E5E2
:1014300032E040E050E06AE372E08EEB90E00E9420
:10144000B3068111C7C103E010E028EC30E04CE6A0
:1014500052E060E070E088E592E00E94B3068111FE
:10146000B9C10AE010E024EF31E041E752E068EC56
:1014700070E08CE692E00E94B3068111ABC101E0FE
:1014800010E022E931E041E351E06CE271E080E0FC
:1014900090E00E94B30681119DC128E532E043EB44
:1014A00051E060E971E08CE291E00E94B3068111A5
:1014B00091C12CEB32E048E552E060E074E08EEF41
:1014C00091E00E94B306811185C12CE632E040E034
:1014D00054E06EEB72E086E592E00E94B306811163
:1014E00079C14CE251E064E873E084E190E00E944D
:1014F0005207811159C14BE450E066E970E08CE27B
:1015000091E00E94520781115AC14CE350E068E714
:1015100070E08EE591E00E945207811150C147E1D1
:1015200050E06CE073E082E890E00E945207811185
:1015300051C140E951E060EB74E088EC90E00E941A
:101540005207882331F089EE93E00E948F068111C3
:1015500043C128EE33E048EE53E06AE070E08AE0F1
:1015600090E00E94A007882309F462C120EC33E0D8
:1015700040EC53E064E170E084E190E00E94A00759
:10158000882309F432C146E950E06CE172E084EF4F
:1015900091E00E945207811135C108E010E020E27D
:1015A00033E04CEB52E060E872E08CE291E00E94A4
:1015B000B30681113DC10FE010E028EC30E04EEEA3
:1015C00052E066E970E082EC91E00E94B30681117E
:1015D00024C12EE531E040E253E068EC70E08EEE8D
:1015E00092E00E94B306811118C14EE650E066E910
:1015F00070E08AED92E00E94820781110EC185E0C1
:1016000090E00E948F06811115C18EE190E00E944A
:101610008F06882331F088E290E00E948F068111C6
:101620001CC148EC50E060E570E083E89FEF0E9449
:101630005207811127C14CE350E06EE373E086E36B
:1016400091E00E94820781111DC12EE130E044E645
:1016500050E06EE373E086E391E00E94A007811101
:1016600011C147E350E066E673E080E293E00E9438
:101670008207811107C12CE231E04DE250E06CE5B8
:1016800073E08CE093E00E94A0078111FBC063E946
:1016900070E089EB90E00E9441078111F5C062E99A
:1016A00071E083EE91E00E9441078111EDC064E397
:1016B00070E083EF91E00E9441078111E5C065E48D
:1016C00071E08EEF92E00E9441078111DDC063EC72
:1016D00072E081E293E00E9441078111D5C06BEB7B
:1016E00072E088EF90E00E9441078111CDC069EF60
:1016F00070E083EC90E00E9441078111C5C061E673
:1017000070E080E690E00E9441078111BFC06DE368
:1017100072E081E693E00E9441078111B7C023E0A7
:1017200030E043E050E06BE972E086EE92E00E9428
:10173000A0078111ABC065EB72E083EC90E00E94E2
:1017400041078111A5C062ED71E081E691E00E9440
:10175000410781119DC025E030E044E050E068E49D
:1017600071E08AEF92E00E94A007811191C081E0B0
:1017700090E00E948F06882309F48CC081E090C01D
:1017800081E290E00E948F06882309F41ACD83E05D
:1017900087C044EF51E06CED70E082EC91E00E9474
:1017A00052078823B9F001CE42E251E06FE773E0BF
:1017B00089E190E00E945207882361F09CCE44E6C4
:1017C00050E064EB70E080E491E00E9452078823CF
:1017D00009F4A5CE8FE064C080E492E00E948F06F9
:1017E000882309F4B6CE88E05BC084EE93E00E94C3
:1017F0008F0681111DC084E692E00E948F06811140
:1018000017C0C1CE4AEA50E060EE71E082EC91E090
:101810000E945207882361F0C0CE4AEA50E060EF90
:1018200070E082EB92E00E945207882309F4E7CE31
:10183000CE0109C084E690E00E948F06882309F457
:10184000E4CECE01019662E070E00E941618FC0121
:10185000FF27E65BFE4F808123C082E390E00E9479
:101860008F06882309F4DDCE8CE390E00E948F067A
:10187000882309F4D6CE86E490E00E948F06882360
:1018800009F4CFCE85E00CC089E00AC08DE008C025
:101890008EE006C083E090E00E948F06811182E016
:1018A000DF91CF911F910F91FF90EF90DF90CF903C
:1018B000BF90AF909F908F907F906F900895FC01A4
:1018C00080919403811103C08FEF9FEF08959FB71C
:1018D000F89482E08093E9002091F20030E0121643
:1018E000130614F421E030E02115310559F0289851
:1018F00084E6809393038091F10080838091F200CD
:10190000882319F09FBFC90108958BE68093E800F2
:10191000F9CF2FB7F89483E08093E9009091E80025
:10192000892F807295FF04C09091F20080E4891B9A
:101930002FBF08958091B10781110DC082E080937F
:10194000AD0784E08093AE071092B0071092AF0706
:1019500081E08093B1078DEA97E00895CF93DF93FC
:101960001F92CDB7DEB76983DC01ED91FC91028057
:10197000F381E02D41E050E0BE016F5F7F4F09959C
:101980000F90DF91CF91089583E08093E9008091DB
:10199000F200882319F08AE38093E80008950E94FA
:1019A000890C90E00895CF93DF931F92CDB7DEB7F7
:1019B000FC018485958597FD05C02FEF3FEF3587A6
:1019C00024870BC0CE0101960E945F0C019719F489
:1019D000898190E002C08FEF9FEF0F90DF91CF9150
:1019E00008950F931F93CF93DF931F92CDB7DEB768
:1019F0008C01FC018485958597FF0EC0CE01019670
:101A00000E945F0C019719F4298130E002C02FEF8A
:101A10003FEFF80135872487F801848595850F907D
:101A2000DF91CF911F910F910895FC0184859585D9
:101A300097FD0BC09FB7F89482E08093E9008091F6
:101A4000F2009FBF90E0019608959FB7F89482E05E
:101A50008093E9008091F2009FBF90E008958F92FB
:101A60009F92AF92BF920F931F93CF93DF93CDB707
:101A7000DEB7A1970FB6F894DEBF0FBECDBF19A297
:101A8000423008F44AE08E010F5D1F4F842E912CE6
:101A9000A12CB12CA50194010E94C517E62FB90114
:101AA000CA0101501109EA3014F4E05D01C0E95C9B
:101AB000D801EC93232B242B252B61F7011511055D
:101AC00071F0F80101900020E9F73197AF01401B58
:101AD000510BB80185E997E00E942C0502C080E017
:101AE00090E0A1960FB6F894DEBF0FBECDBFDF9198
:101AF000CF911F910F91BF90AF909F908F900895BD
:101B00008F929F92AF92BF92CF92DF92EF92FF920D
:101B10000F931F93CF93DF935C016B017A01809148
:101B20000F01882309F45BC080919403882309F492
:101B300056C08091920380FF05C08091E0008260D2
:101B40008093E000E70110E00AEF83E0882E9AE33B
:101B5000992E2097D9F10E94890C81110AC0015059
:101B600009F43DC061E070E080E090E00E94BD07B4
:101B7000F0CF282F30E0C217D3070CF48C2F4FB7CB
:101B8000F8948092E9009091E80095FF1DC0282FFD
:101B900030E0C21BD30BF601982F915020F08191B9
:101BA0008093F100FACFC20ED31E112319F0909248
:101BB000E80009C08091E80085FD06C09092E80029
:101BC00011E0209709F010E04FBFC3CF1111C3CF30
:101BD0005D9884E68093AC071E141F0444F081E0F6
:101BE00090E0F5019383828380E090E001C0C7011B
:101BF000DF91CF911F910F91FF90EF90DF90CF90E9
:101C0000BF90AF909F908F900895DF92EF92FF92D8
:101C10000F931F93CF93DF93D82E8A017B01E40E9D
:101C2000F51EEB01CE15DF0571F0D7FE03C0FE01F6
:101C3000849101C088810E94451121968111F2CFC3
:101C40008FEF9FEF01C0C801DF91CF911F910F91DE
:101C5000FF90EF90DF9008950F931F93CF93DF9342
:101C60001F92CDB7DEB782E0898342E450E06DE891
:101C700079E080E80E94050E0E949A0CDC01129621
:101C80000D911C9113970115110569F0D801ED9183
:101C9000FC910280F381E02DBE016F5F7F4FC80190
:101CA000099597FF07C089810F90DF91CF911F9110
:101CB0000F910895F80100851185E5CFCF92DF924D
:101CC000EF92FF92CF93DF936C01990FEE08FF081C
:101CD000F7FE1FC0E0919507F09196070190F08103
:101CE000E02D6DE285E997E00995EC0166277727FD
:101CF000CB016C197D098E099F094AE00E942F0DC6
:101D00008C0F9D1FDF91CF91FF90EF90DF90CF90D0
:101D100008954AE0C701B601DF91CF91FF90EF909F
:101D2000DF90CF900C942F0DE5E9F3E0A0E0B8E050
:101D300000800EBC8111012C1197A0FDFDCF0192F6
:101D4000B9F70DB408951F920F920FB60F92112498
:101D50008F939F938091E1009091E100937F909306
:101D6000E10083FF0FC01092E90091E09093EB0037
:101D70001092EC0092E39093ED001092940398E09F
:101D80009093F00082FF20C093E09093E90090913F
:101D9000F200992319F09AE39093E8009091AC0730
:101DA000992339F09091AC0791509093AC07992307
:101DB00089F190919303992339F090919303915075
:101DC00090939303992341F184FF10C08091E20026
:101DD0008E7E81608093E2008091E1008F7E80930F
:101DE000E100809192038E7E806111C080FF16C059
:101DF0008091E2008E7E80618093E2008091E1001C
:101E00008E7E8093E100809192038E7E816080932C
:101E1000920304C05D9ACDCF289AD6CF9F918F911F
:101E20000F900FBE0F901F9018951F920F920FB634
:101E30000F921124CF92DF92EF92FF920F931F9394
:101E40002F933F934F935F936F937F938F939F93C2
:101E5000AF93BF93EF93FF93CF93DF93CDB7DEB7ED
:101E60006C97DEBFCDBF1092E9008091E80083FF40
:101E7000EDC168E0CE0145960E94731182EF809318
:101E8000E8008D8987FF05C09091E80090FFFCCFA6
:101E900003C09EEF9093E800982F907609F0C6C09B
:101EA0009E892F89188D91110CC0803829F480915A
:101EB00091038093F10002C01092F1001092F100A2
:101EC00048C1422F50E0512B913051F4811141C152
:101ED0004130510509F03DC1809191038D7F0BC0C8
:101EE000933061F4811135C14130510509F031C1A0
:101EF000809191038260809391032BC1953041F4CE
:101F00008091E80080FFFCCF20682093E30021C18E
:101F1000963009F05FC0EB8CFC8C1092E9001092B7
:101F20008F0310928E03123091F510928D03109250
:101F30008C030E942C0E99E0BE016F5F7F4FDB0186
:101F4000E92F1D92EA95E9F799831A8391E09E8320
:101F500090EA98879AEF998720918E0330918F03AA
:101F6000275F3F4F3C832B838D831092E9001092B3
:101F70008F0310928E03F0928D03E0928C0349E060
:101F800050E080E00E94050E0E942C0EE2C0F0920C
:101F90008D03E0928C030E949A0CDC011296ED9066
:101FA000FC901397E114F10409F4C0C0D701ED913E
:101FB000FC910480F581E02DBE016B5E7F4FC7016F
:101FC0000995009719F00CF0C4C0C7C0F701E08470
:101FD000F184E8CF973009F4C0C0983021F481E053
:101FE0008093F100B6C0993009F0B3C0837009F056
:101FF000B4C0EDE4F1E081E021E036E39081992383
:1020000061F08093E9002093EB0091919093EC00B4
:102010003093ED008F5F873089F78EE78093EA0079
:102020001092EA008F898093940393C08B8D9C8DCE
:102030001092E90010928F0310928E0390938D03FB
:1020400080938C03898D811156C08E899D89913A28
:1020500059F4813209F081C047E050E068E071E056
:1020600080E00E94050E75C0913209F076C083327F
:1020700089F4888D90E0982F88272F89822BA0E003
:10208000B0E08093040190930501A0930601B09302
:1020900007015FC0803269F48091E80082FFFCCFC5
:1020A00067E088E091E00E9473118BEF8093E80075
:1020B00006C0823209F04DC08F8980930F01809154
:1020C0009003882319F0EEEFFAE002C0E0E0F8E0B8
:1020D0008091080190910901A0910A01B0910B0132
:1020E000803B9440A105B10509F07BC080910F01B0
:1020F00080FF93C076C00E949A0CDC0112960D916D
:102100001C9113970115110541F1D801ED91FC9136
:102110000190F081E02DBE016B5E7F4FC8010995F3
:10212000811117C0F80100851185ECCF113009F439
:102130004EC0133091F48F89882309F445C0823052
:1021400081F440E860E181EF99E00E942217882342
:1021500021F08EEF8093E80079C081E28093EB005C
:1021600075C0813029F440E86BE085EE99E0EDCF51
:10217000833099F70E949A0CDC011296ED90FC9046
:1021800013978E010F5F1F4F6801E114F10479F07E
:10219000D701ED91FC910680F781E02DB801C701D0
:1021A0000995080F111DF701E084F184EECFD801E5
:1021B0001C92F60101900020E9F73197BF016C19DC
:1021C0007D0940E0C601C1CF6FEC79E002C063ED4C
:1021D00079E06115710509F2FB01449150E080E856
:1021E00040CF0FB6F894A8958091600088618093E5
:1021F0006000109260000FBEA895EE3F2AE0F20743
:1022000039F08091FE0A9091FF0A91838083A1CFDB
:102210001092FF0A1092FE0A9CCFEE3F8AE0F80768
:1022200031F0808191819093FF0A8093FE0A87E7C5
:1022300097E7918380839BE088E10FB6F894A89597
:10224000809360000FBE9093600083CF6C960FB6B2
:10225000F894DEBF0FBECDBFDF91CF91FF91EF911C
:10226000BF91AF919F918F917F916F915F914F91AE
:102270003F912F911F910F91FF90EF90DF90CF90A2
:102280000F900FBE0F901F90189540918E035091A4
:102290008F0320918C0330918D0342175307B4F4C0
:1022A0009091E8009570E1F39091E80092FD19C0DB
:1022B0008093F10080918E0390918F0301968F732C
:1022C0009927892B19F48EEF8093E80080918E0373
:1022D00090918F03019690938F0380938E0381E0FA
:1022E000089580E00895615030F02091F100FC01E4
:1022F00020830196F8CF289884E68093930308956D
:10230000CF93DF93CDB7DEB7A2970FB6F894DEBFB9
:102310000FBECDBF789484B5826084BD84B58160E2
:1023200084BD85B5826085BD85B5816085BD8091A0
:102330006E00816080936E00109281008091810018
:102340008260809381008091810081608093810010
:1023500080918000816080938000809191008260F4
:102360008093910080919100816080939100809191
:1023700090008160809390008091C1008460809380
:10238000C1008091C10082608093C1008091C10032
:1023900081608093C1008091C30081608093C300FD
:1023A0008091C00082608093C0008091C2008160F3
:1023B0008093C20080917A00846080937A0080913B
:1023C0007A00826080937A0080917A0081608093A5
:1023D0007A0080917A00806880937A00109294034A
:1023E00010929103109292038091D70081608093A4
:1023F000D70080EA8093D80089B5806189BD89B50E
:10240000826089BD09B400FEFDCF61E070E080E02C
:1024100090E00E94BD078091D8008F7C80618093FE
:10242000D8008091E000807F8093E0008091E100FF
:102430008E7E8093E1008DE08093E200559A209A91
:10244000EEEFFFE7859194918B3F9C4D19F481E06D
:102450008093900380E19EE29093800380937F03BA
:1024600080E999E2909382038093810381EC8093C9
:102470007C0085B1806F85B984B1877E84B984B1D1
:10248000876E84B95E9A5F988AB1806D8AB9769AB0
:102490006E9881B3806F81BB899880B38D7080BB4B
:1024A00080E58CBD81E08DBD85E090E00E94430811
:1024B0005F9A85E090E00E9443085E985C98E6E7AA
:1024C000F1E08DE08E0F94919EBD00000DB407FEEB
:1024D000FDCF31968E13F7CF5C9A81E8809364002C
:1024E0008091650081608093650080E00E94940E79
:1024F0000E94480887FF24C05C9885EA8EBD0000D2
:102500000DB407FEFDCF5C9A2E982F982D988091E0
:10251000640080628093640081E083BF889513BE6D
:10252000FCCF2D980E9448088478843871F00E946E
:1025300048088471843131F188EC90E00E944308AE
:102540000E94480882FDEDCF3AC00E94410888EC05
:1025500090E00E9443082F9882E090E00E9490173C
:102560008F3F29F06FEF82E090E00E94981784EF90
:1025700091E00E9443082F9A0E944808847884388A
:10258000D9F3D5CF0E94410888EC90E00E9443081F
:102590002E9882E090E00E949017882329F060E056
:1025A00082E090E00E94981784EF91E00E94430837
:1025B0002E9A0E94480884718431D9F3BDCF0E94BD
:1025C000410882E090E00E949017882331F03E9A03
:1025D0003F9A81E080937E0104C010927E013E9874
:1025E0003F9881E090E00E94500882FB772470F8C9
:1025F00081FF8EC071102E9800EF1FEF68E0A62EAD
:10260000B12C0E94480886FF04C02E9A2F9A2D9A5A
:102610007FC0772029F00430110511F42E9A2F98ED
:1026200081E00E94940E980117FF04C022273327EF
:10263000201B310B27703327C80117FD079653E085
:10264000959587955A95E1F717FF05C00197A50164
:10265000421B530B9A017C01F694FE2CEE24F79456
:10266000E79440E050E02501421A530AB701605850
:102670007F4F4B018F3F7FEF970744F40196485AF5
:102680005F4F7401403B510589F721C0D701A75D19
:10269000BB4F60E070E08F3FEFEF9E0709F415C37A
:1026A000FB01E40FF51FEA53FF4FE4916D01C818D9
:1026B000D908CE0CDF1CF0E01F01022E01C0220C55
:1026C0000A94EAF7F601608026282082FEC280E0A4
:1026D0000E94940E8FE090E00E9443080F5F1F4F0E
:1026E0000931110509F08DCF772011F02F9A2D981F
:1026F00080E991E00E9443080E944108E091990717
:10270000F0919A070190F081E02D89E997E0099511
:1027100082E390E00E9443080E9448088111F8CFAC
:1027200083E08093A0078FB7F89440917A0150918D
:102730007B0160917C0170917D018FBF8091A10729
:10274000942F981B8091A207882329F09093A307C8
:102750001092A207B2C22091A007921748F49F5F7F
:10276000921708F0AAC281E083BF889513BEA5C264
:1027700091E09093A2074093A10720919C0730918C
:102780009D072F5F3F4F30939D0720939C07E5E9FE
:10279000F3E081118FEF00248193819381938193E2
:1027A0000394D1F71092A7071092A6071092A507DD
:1027B0001092A40780919E0780939F070E9448086B
:1027C00080939E070E94480883FF03C000E110E049
:1027D00002C003E010E080E890E00E9452088823E5
:1027E00039F08091810390918203801B910B0CC082
:1027F00080E190E00E945208882351F0809181038B
:1028000090918203800F911F9093820380938103A4
:1028100080E490E00E945208882359F080917F0361
:1028200090918003080F191F1093800300937F037A
:1028300010C080E290E00E945208882351F08091FD
:102840007F0390918003801B910B90938003809372
:102850007F0380917F039091800397FF05C01092C2
:10286000800310927F0309C08130904434F080E0EF
:1028700090E49093800380937F03809181039091F3
:10288000820397FF05C0109282031092810309C052
:102890008130904434F080E090E490938203809300
:1028A000810380917F03909180039C0197FF02C078
:1028B000215F3F4FA90104E0559547950A95E1F73F
:1028C0005A8B498B2091810330918203A90137FFF4
:1028D00002C0415F5F4F6A0114E0D594C7941A9516
:1028E000E1F7DC8ACB8AE0E1F0E0BF010E94161834
:1028F0009B8F8A8FC901BF010E941618442455245A
:10290000481A590A760125E0E21AF108242D2770A9
:102910002C87C20157FC079623E0959587952A9549
:10292000E1F78D8B3FEF380F3E8F41E050E00C8494
:1029300002C0440F551F0A94E2F75F8B4E8B2FEFB6
:10294000249FC001259F900D11246C01C094D09448
:10295000D98EC88E6A8C7B8C719461947108298998
:102960003A892C5031093F832E8319861886A70196
:102970004B5F5F4F5E874D872E803F803CE0230E8C
:10298000311C80910201909103012816390694F0C0
:102990004F968215930574F080910001909101018A
:1029A0004D855E85481759072CF00F9684179507BB
:1029B0000CF063C02FE731E03B872A87A701405F17
:1029C0005F4F58A34F8F67012E813F81205E3F4F9D
:1029D0003AA329A34A855B85588B4F870E811F81B7
:1029E000560151E0A51AB1089601225031093D8FD8
:1029F0002C8FB501C8010E947208982E36E083130F
:102A000008C0B601C8010E947208873009F0D1C120
:102A1000D2C147E0841374C16C8D7D8DC8010E94C2
:102A20007208863009F0C5C1C6C181E1EF85F88919
:102A30008193F88BEF870F5F1F4F29A13AA10217EF
:102A40001307B9F63FEFC31AD30A4A855B85405E88
:102A50005F4F5B874A872F8D38A1C216D30609F0D6
:102A6000B9CF4E815F815093030140930201C701AA
:102A70000197909301018093000180910001909152
:102A80000101ED85FE85E81BF90B80910201909113
:102A90000301B101681B790BA5E0EE0FFF1FAA959A
:102AA000E1F7E60FF71FE158FE4F7081E3E8F1E030
:102AB000B490E4E8F1E0E491772309F12B2D30E0C4
:102AC0008E2F869586958695482F50E081E090E080
:102AD0006E2F677011F480E090E0840F951F289F9F
:102AE000A001299F500D389F500D1124749F900113
:102AF000759F300D1124B9016B577E4F02C065E8F8
:102B000071E0CB2CD12C93012C0D3D1D1216130618
:102B10000CF09FC080E8681671040CF09AC0A20106
:102B20004E0F511D141615060CF093C090E4491673
:102B300051040CF08EC06115710509F48AC057FE6E
:102B400003C04C85411102C09D8901C09E8D77FE56
:102B500007C0AA8DBB8D48855985A41BB50B02C043
:102B6000A0E0B0E02038310524F080E8982E9618D7
:102B700001C09B2C9A1A01E09E3F09F000E031E071
:102B80002E2F277009F430E0E695E695E695832F21
:102B90008E0F282F30E0290F311D97FD3A952930EF
:102BA000310514F088E0891BA02EA90EA3012A2D5F
:102BB00030E82303400D511D11244A0F5B1F10E024
:102BC0000C9D90010D9D300D1C9D300D11242A0F80
:102BD0003B1F620F731FC88CD98CDC82CB828C8028
:102BE000890F0B2D10E0A816A1F1DA01AB56BC4FEE
:102BF00020E030E0291538F5FB01E20FF31FE491E6
:102C0000CE88DF88EC9D1001ED9D300C11243A82B6
:102C10002982A7FC05C09C91D88C9D21292A2C9241
:102C2000CC84CC2061F0E6E0DE2EDA1444F0FD0125
:102C3000E058FF4F90819821CA809C2990832F5F94
:102C40003F4F1196D7CFA394600F711F40585F4F2D
:102C5000CACF20E1620E711C48855985405F5F4FE5
:102C6000598748872E813F812F5F3F4F3F832E83B7
:102C70004039510509F080CE30E1430E511C4FEF31
:102C8000E41AF40ACB88DC88EC14FD0409F03ECE8B
:102C900089899A890E945E0EE0919507F0919607C6
:102CA0000190F081E02D60E285E997E00995C70188
:102CB0000E945E0E80E00E94940E80E090E0892BDE
:102CC00009F431CD0E9400002ECD2115310581F08F
:102CD000FB01E40FF51FEA53FF4FE491F0E0042CF1
:102CE00002C0F595E7950A94E2F7DC90ED29EC93A4
:102CF0006F5F7F4F11966835710509F0CCCCBECC63
:102D00005FE0851358C0B501C8010E9472088D8329
:102D10006C8D7D8DC8010E94720888248394912C4B
:102D20005D81851302C0812C912CB501C8010196EB
:102D30000E9472082D81821303C0E0E0F0E002C01F
:102D4000E2E0F0E08E2A9F2AB601C8010E947208D4
:102D50003D81831303C0E0E0F0E002C0E4E0F0E076
:102D60008E2A9F2AB501C80101970E9472084D81E1
:102D7000841302C080E001C088E0E82DE82B8E2F8C
:102D800090E08D309105A8F4FC01EA5AFF4F0C94B5
:102D90002A1883E14BCE80E149CE85E147CE87E119
:102DA00045CE86E143CE84E141CE8FE03FCE82E145
:102DB0003DCE80E03BCE892D39CE0F931F93CF932C
:102DC000DF938C0181E090E00E94500880FF32C0C8
:102DD0008AE090E00E9450089FEF980F9E3F50F5C8
:102DE00022E330E0D80150963C932E931F9728E3BE
:102DF00030E052963C932E935197CBE0D0E0D8012F
:102E0000ED91FC910190F081E02D682FC8010995AA
:102E1000CE010E9450082196C131D10581F780E092
:102E20000E94940E88EE93E0DF91CF911F910F9155
:102E30000C944308DF91CF911F910F91089504974F
:102E40000C94DD16CF92DF92EF92FF920F931F93B7
:102E5000CF93DF931F92CDB7DEB7182F062FE42E46
:102E6000862F880F8E5F99830E94451183E00E9410
:102E70004511F12EC12E9981D92E8C2D8F198017D5
:102E800098F4F601E7FE02C0849101C080810E949F
:102E90004511182F80E00E9445118123FFEFCF1AC2
:102EA000DF0A8111EACF01C081E00F90DF91CF915D
:102EB0001F910F91FF90EF90DF90CF900895E9EB75
:102EC000F7E01382128288EE93E0A0E0B0E0848302
:102ED0009583A683B78387E591E0918380838FEF05
:102EE0009FEF95878487E5E9F7E0138212821186C8
:102EF000128680E1838710861782158689E691E025
:102F00009183808387E791E095838483108A178675
:102F1000128A118A81E0838B148A858B168A089520
:102F2000F999FECF92BD81BDF89A992780B5089591
:102F3000262FF999FECF1FBA92BD81BD20BD0FB6D5
:102F4000F894FA9AF99A0FBE01960895052E97FB08
:102F50001EF400940E94BD1757FD07D00E94C517AC
:102F600007FC03D04EF40C94BD1750954095309556
:102F700021953F4F4F4F5F4F0895909580957095E5
:102F800061957F4F8F4F9F4F0895A1E21A2EAA1B84
:102F9000BB1BFD010DC0AA1FBB1FEE1FFF1FA21709
:102FA000B307E407F50720F0A21BB30BE40BF50B06
:102FB000661F771F881F991F1A9469F7609570958F
:102FC000809590959B01AC01BD01CF010895A29F12
:102FD000B001B39FC001A39F700D811D1124911DED
:102FE000B29F700D811D1124911D0895991B79E0E8
:102FF00004C0991F961708F0961B881F7A95C9F789
:1030000080950895AA1BBB1B51E107C0AA1FBB1FD7
:10301000A617B70710F0A61BB70B881F991F5A9564
:10302000A9F780959095BC01CD01089597FB072ED7
:1030300016F4009407D077FD09D00E94021807FC0F
:1030400005D03EF4909581959F4F089570956195B8
:103050007F4F0895EE0FFF1F0590F491E02D099426
:103060000E94E717332312F48A1B9B0B0C943A1827
:103070000E94E717B7FF0895821B930B089581E024
:0C30800090E0F8940C944418F894FFCFF2
:10308C0018FC18FCFFFFFFFF00E10000000000002F
:10309C0003020A0A0A0B0C0B57005E0010015E00BB
:1030AC005F001001590061001001E1029A02100149
:1030BC00E402A9021001E3029F021001A1035D01C9
:1030CC001001DA00AE0110010102060700C1808177
:1030DC0000000000000000AE0C800DCF0CC40C15DD
:1030EC000DD30CF10C000000007C052C058C068B1C
:0A30FC0006DD16FCFF00001F1700A0
:00000001FF
